:020000040800F2
:100000000000032055090008A5090008A5090008FB
:10001000A5090008A5090008A509000800000000BE
:10002000000000000000000000000000A50900081A
:10003000A509000800000000A5090008AD06000899
:10004000A5090008A5090008A5090008A5090008D8
:10005000A5090008A5090008A5090008A5090008C8
:10006000A5090008A5090008A5090008A5090008B8
:10007000A5090008A5090008A5090008A5090008A8
:10008000A5090008A5090008A5090008A509000898
:10009000A5090008A5090008A5090008A509000888
:1000A000A5090008A5090008A5090008A509000878
:1000B000A5090008A5090008A5090008A509000868
:1000C000A5090008A5090008A5090008A509000858
:1000D000A5090008A5090008A5090008A509000848
:1000E00021050008A5090008A5090008A5090008C0
:1000F000A5090008A5090008A5090008A509000828
:10010000A5090008A5090008A5090008A509000817
:10011000A5090008A5090008A5090008A509000807
:10012000A5090008A5090008A5090008A5090008F7
:10013000A5090008A5090008A5090008A5090008E7
:10014000A5090008A5090008A5090008A5090008D7
:10015000A5090008A5090008A5090008A5090008C7
:10016000A5090008A5090008A5090008A5090008B7
:10017000A5090008A5090008A5090008000000005D
:10018000A5090008A5090008A5090008A509000897
:10019000A5090008A5090008A5090008A509000887
:0C01A000A5090008A5090008A509000831
:1001AC0010B5054C237833B9044B13B10448AFF3A5
:1001BC0000800123237010BD080000200000000007
:1001CC00F009000808B5034B1BB103490348AFF312
:1001DC00008008BD000000000C000020F0090008A1
:1001EC00034AD2F8883043F47003C2F88830704761
:1001FC0000ED00E008B500F0B7F800F031F800F0C1
:10020C002FF900F067F9034A0349044800F066FA35
:10021C00F9E700BF3000002024000020350000204A
:10022C0000B500F00700C0F1070CBCF1040F28BFAB
:10023C004FF0040C031D062B0FD9C31E4FF0FF3ECD
:10024C000EFA0CF021EA000199400EFA03FE22EAA4
:10025C000E0241EA02005DF804FB0023EEE7000009
:10026C003F4A136B43F0060313633E4B1A6842F08C
:10027C0001021A605A6822F001025A609A6842F030
:10028C0001029A60DA6822F00102DA609A6942F49B
:10029C0080329A611A6842F480421A605A6822F0DD
:1002AC0080025A609A6842F480429A60DA6822F4BA
:1002BC008042DA609A6942F400029A611A6842F04C
:1002CC0080521A605A6822F480425A609A6842F04E
:1002DC0080529A60DA6822F08052DA609A6942F0B1
:1002EC0080429A611A6842F480321A605A6822F489
:1002FC0080725A609A6842F480329A60DA6822F40A
:10030C008032DA609A6942F080729A611A6842F41B
:10031C0080221A605A6822F400725A609A6842F479
:10032C0080229A60DA6822F48022DA609A6942F0BC
:10033C0000729A611A6842F080421A605A6822F47C
:10034C0000425A609A6842F080429A60DA6822F061
:10035C008042DA609A6942F000429A61704700BFAD
:10036C0000380240000402403B4A136823F0F803B3
:10037C0043F08003136000239360374B9B6813F0AA
:10038C000C0FFAD1344A136823F080731360324B8C
:10039C001B6813F0007FFAD12F4A136823F4102343
:1003AC0013602D4B1B6813F4003FFAD12A4B1A68CB
:1003BC0022F480221A601A6842F480321A60264BAA
:1003CC001B6813F4003FFAD0234B1A6842F4002246
:1003DC001A601A6842F480221A601A6822F001022C
:1003EC001A6000225A605A6842F480025A605A68B5
:1003FC0042F004025A605A6842F4B4425A605A6895
:10040C0042F480325A605A6842F070625A609A68BC
:10041C0042F002029A609A689A609A6842F4A0527A
:10042C009A609A6842F400429A609A6822F04042BC
:10043C009A609A6842F040529A6008490A6842F001
:10044C0005020A601A6842F080721A60024B1B683F
:10045C0013F0007FFAD0704700380240003C024095
:10046C0008B5184A536C43F480435364A2F58032A8
:10047C00536923F0F00343F020035361536923F0D5
:10048C000F0343F0020353610F4B1A6842F44052BE
:10049C001A609A6842F440529A60DA6842F4405208
:1004AC00DA600A4BD86800221146C0F30220FFF72D
:1004BC00B7FE0001C0B2064B83F828034FF48072DC
:1004CC005A6008BD00380240003C014000ED00E0DD
:1004DC0000E100E04FF0E0231A6922F001021A61FA
:1004EC001A6942F002021A611A6942F004021A6196
:1004FC005A6902F07F4206490A435A619A6902F02E
:10050C007F420A439A611A6942F001021A617047EC
:10051C001FBF0200534B5B6913F4805F1ED0524B1C
:10052C001A68524B1B68D31A322B12D9504B1B69C9
:10053C0013F4805F06D04F4B1B7843B94D4B012110
:10054C00197004E04B4B1B78DBB2012B1FD0474BCF
:10055C001A60444A536943F480535361414B5B69BD
:10056C0013F4005F7CD0404B1A68434B1B68D31AC2
:10057C00322B3AD93E4B1B6913F4005F2ED03F4B04
:10058C001B78002B2FD13D4B012119702BE0394BDF
:10059C00002119703A4B1B68B3F5FA6F11D2394B25
:1005AC001B78394901EB430148780130374B83FB09
:1005BC0000C303EB4303C31A4B70314B002119608A
:1005CC00C5E7334801780131324B83FB01C30B443F
:1005DC009B10C3EBC303CB1A0370EEE7274B1B78BE
:1005EC00DBB2012B07D0244B1A601E4A536943F42B
:1005FC00005353617047214B00211970264B1B6827
:10060C00B3F5FA6F10D31F4801780131234B83FBEC
:10061C0001C303EB43034FEA430CA1EB0C03037040
:10062C001D4B00211960DEE700B5164B93F800C096
:10063C00154810F81C100131144B83FB01E303EB3C
:10064C004303CB1A00F81C30134B002119600A4BE2
:10065C001A60044A536943F4005353615DF804FB78
:10066C00704700BF003C0140300000203C000020DF
:10067C0000080240490000203800002048000020FB
:10068C00440000203400002024000020565555550D
:10069C00350000209324499240000020ABAAAA2ADE
:1006AC00094A136801331360084B1B781BB1084AC5
:1006BC00136801331360074B1B781BB1064A136890
:1006CC0001331360704700BF300000204900002048
:1006DC0044000020480000204000002030B40B787B
:1006EC004C7803EB43032344894C34F813400378D0
:1006FC00ABB11368874D2D685B1BA3420FD9864B9A
:10070C001B78012B00F0CE80844CA36943F00103CD
:10071C00A361814B01241C7014687E4B1C60037810
:10072C00012B1DD98B78CC7803EB43032344784CF5
:10073C0034F8134013687A4D2D685B1BA3420FD914
:10074C00784B1B78012B00F0B680744CA36943F0F6
:10075C008003A361734B01241C701468704B1C60E4
:10076C000378022B1DD90B794C7903EB43032344FB
:10077C00674C34F8134013686B4D2D685B1BA34218
:10078C000FD96A4B1B78012B00F09E80634CA36938
:10079C0043F48043A361654B01241C701468624BC5
:1007AC001C600378032B1DD98B79CC7903EB4303A5
:1007BC002344574C34F8134013685D4D2D685B1B74
:1007CC00A3420FD95B4B1B78012B00F08680534C56
:1007DC00A36943F48073A361564B01241C70146805
:1007EC00534B1C600378042B1CD90B7A4C7A03EB0B
:1007FC0043032344464C34F8134013684E4D2D6884
:10080C005B1BA3420ED94D4B1B78012B6ED0434C76
:10081C00A36943F40073A361484B01241C70146852
:10082C00454B1C600378052B1CD98B7AC97A03EBDA
:10083C0043030B44364931F813101368404C2468B9
:10084C001B1B8B420ED93F4B1B78012B57D03349C6
:10085C008B6943F400438B613A4B01211970126888
:10086C00374B1A600378DBB903F1804303F501338E
:10087C009A6942F480329A619A6942F400029A6150
:10088C009A6942F080429A619A6942F080729A6148
:10089C009A6942F000729A619A6942F000429A6138
:1008AC0030BC70471D4CA36943F48033A3611A4BD1
:1008BC0000241C7030E7194CA36943F40003A361B6
:1008CC00184B00241C7048E7144CA36943F0804378
:1008DC00A361164B00241C7060E7104CA36943F015
:1008EC008073A361134B00241C7078E70B4CA36935
:1008FC0043F00073A361114B00241C708FE7074970
:10090C008B6943F000438B610E4B00211970A6E7F5
:10091C00080A0008600000200500002000040240C6
:10092C005C00002004000020580000200300002080
:10093C005400002002000020500000200100002084
:10094C004C00002000000020DFF834D00D480E4988
:10095C000E4A002302E0D458C4500433C4188C420D
:10096C00F9D30B4A0B4C002301E013600432A24272
:10097C00FBD3FFF735FC00F011F8FFF73BFC704799
:10098C00000003200000002008000020240A0008BA
:10099C000800002064000020FEE7000070B50D4D3B
:1009AC000D4C641BA4100026A64209D10B4D0C4C17
:1009BC0000F018F8641BA4100026A64205D170BDE7
:1009CC0055F8043B98470136EEE755F8043B984739
:1009DC000136F2E71C0A00081C0A00081C0A000871
:1009EC00200A0008F8B500BFF8BC08BC9E4670474A
:0C09FC00F8B500BFF8BC08BC9E46704770
:100A0800050DE803CA02C40941034C02D00771026C
:040A18000E020000CA
:040A1C00D1010008FC
:040A2000AD0100081C
:080A24000101010101010000C4
:040000050800095591
:00000001FF
