:020000040800F2
:100000000000032071060008C1060008C1060008B0
:10001000C1060008C1060008C10600080000000073
:10002000000000000000000000000000C106000801
:10003000C106000800000000C1060008C106000853
:10004000C1060008C1060008C1060008C106000874
:10005000C1060008C1060008C1060008C106000864
:10006000C1060008C1060008C1060008C106000854
:10007000C1060008C1060008C1060008C106000844
:10008000C1060008C1060008C1060008C106000834
:10009000C1060008C1060008C1060008C106000824
:1000A000C1060008C1060008C1060008C106000814
:1000B000C106000891050008C1060008C106000835
:1000C000C1060008C1060008C1060008C1060008F4
:1000D000C1060008C1060008C1060008C1060008E4
:1000E000F1040008C1060008C1060008C1060008A6
:1000F000C1060008C1060008C1060008C1060008C4
:10010000C1060008C1060008C1060008C1060008B3
:10011000C1060008C1060008C1060008C1060008A3
:10012000C1060008C1060008C1060008C106000893
:10013000C1060008C1060008C1060008C106000883
:10014000C1060008C1060008C1060008C106000873
:10015000C1060008C1060008C1060008C106000863
:10016000C1060008C1060008C1060008C106000853
:10017000C1060008C1060008C10600080000000012
:10018000C1060008C1060008C1060008C106000833
:10019000C1060008C1060008C1060008C106000823
:0C01A000C1060008C1060008C1060008E6
:1001AC0010B5054C237833B9044B13B10448AFF3A5
:1001BC0000800123237010BD00000020000000000F
:1001CC000C07000808B5034B1BB103490348AFF3F8
:1001DC00008008BD00000000040000200C0700088F
:1001EC00034AD2F8883043F47003C2F88830704761
:1001FC0000ED00E008B500F029F800F047F800F039
:10020C00C1F800F0F3F800F02DF9FEE700B500F0AE
:10021C000700C0F1070CBCF1040F28BF4FF0040C11
:10022C00031D062B0FD9C31E4FF0FF3E0EFA0CF028
:10023C0021EA000199400EFA03FE22EA0E0241EA7D
:10024C0002005DF804FB0023EEE700000D4A136B7F
:10025C0043F0160313630C4B1A6842F480321A6095
:10026C005A6822F480725A609A6842F480329A601A
:10027C00DA6822F48032DA609A6942F080729A610C
:10028C00704700BF00380240000402403B4A13682C
:10029C0023F0F80343F08003136000239360374B83
:1002AC009B6813F00C0FFAD1344A136823F0807357
:1002BC001360324B1B6813F0007FFAD12F4A13687E
:1002CC0023F4102313602D4B1B6813F4003FFAD159
:1002DC002A4B1A6822F480221A601A6842F480327F
:1002EC001A60264B1B6813F4003FFAD0234B1A6894
:1002FC0042F400221A601A6842F480221A601A68CA
:10030C0022F001021A6000225A605A6842F48002FC
:10031C005A605A6842F004025A605A6842F4B44275
:10032C005A605A6842F480325A605A6842F07062DD
:10033C005A609A6842F002029A609A689A609A68C7
:10034C0042F4A0529A609A6842F400429A609A6809
:10035C0022F040429A609A6842F040529A600849F2
:10036C000A6842F005020A601A6842F080721A604C
:10037C00024B1B6813F0007FFAD070470038024024
:10038C00003C024008B5154A536C43F48043536457
:10039C00A2F58032536923F0F00343F0200353613C
:1003AC000F4B1A6842F400521A609A6842F40052D9
:1003BC009A60DA6842F40052DA600A4BD86800227C
:1003CC001146C0F30220FFF721FF0001C0B2064B1B
:1003DC0083F828034FF480725A6008BD003802403D
:1003EC00003C014000ED00E000E100E01B4A536CD2
:1003FC0043F001035364A2F52052136823F04053D9
:10040C0043F000531360536A23F0706343F080731E
:10041C005362134B1A6822F001021A60B3229A62DB
:10042C0040F2E732DA6200221A64DA6942F40062BE
:10043C00DA61DA6922F4E042DA61DA6942F4C04244
:10044C00DA611A6A42F480521A625A6C42F400421F
:10045C005A641A6842F001021A6070470038024070
:10046C000000014010B51B4A136C43F002031364E7
:10047C00194C236823F001032360A36A6FF30F0365
:10048C0043F05903A362E36A40F2E733E362236863
:10049C0043F080032360636943F001036361E36805
:1004AC0043F00103E3600D4BD86800220121C0F337
:1004BC000220FFF7ABFE0001C0B2094B83F81D030D
:1004CC004FF000521A6000236362236843F001036B
:1004DC00236010BD003802400004004000ED00E035
:1004EC0000E100E0164B5B6913F4005F1ED0154B66
:1004FC001A68154B1B68D31A322B12D9134B1B6974
:10050C0013F4005F06D0124B1B7843B9104B01213A
:10051C00197004E00E4B1B78DBB2012B07D00A4B91
:10052C001A60074A536943F4005353617047084BF0
:10053C000021197007490B7801330B70EFE700BFEE
:10054C00003C014020000020280000200008024050
:10055C002C00002024000020642800D96420074AC5
:10056C00D36A03FB00F0064BA3FB0030136C6FF354
:10057C000F0343EA50131364704700BF000001409F
:10058C001F85EB512E4B1B6913F0010F56D010B584
:10059C002C4A1368013313602B4B1B78012B28D08A
:1005AC00012B2BD8294B1A8840F6B7339A4207D91E
:1005BC000023254A1370264A01211180234A1380F7
:1005CC00234B1B88012B2FD0224B1B88B3F57A7F32
:1005DC0009D300231F4A13801D4A13801E4A9369B6
:1005EC0043F080739361164A136923F0010313617E
:1005FC0010BD16490A8801320A80D1E70024124B3B
:10060C001C70164A13781433154880FB03101844D9
:10061C008011C0EB0010C100581AC0B21070FFF767
:10062C009BFF0A4B1C80BDE70A4A138801331380D9
:10063C00094A936943F480739361C5E7704700BF1F
:10064C000004004020000020240000201C0000209A
:10065C00250000201E00002000040240260000207F
:10066C0089888888DFF834D00D480E490E4A00235B
:10067C0002E0D458C4500433C4188C42F9D30B4A4A
:10068C000B4C002301E013600432A242FBD3FFF7B2
:10069C00A7FD00F011F8FFF7ADFD70470000032037
:1006AC0000000020000000202C07000800000020A3
:1006BC0030000020FEE7000070B50D4D0D4C641BA2
:1006CC00A4100026A64209D10B4D0C4C00F018F8D2
:1006DC00641BA4100026A64205D170BD55F8043B3E
:1006EC0098470136EEE755F8043B98470136F2E798
:1006FC00240700082407000824070008280700081E
:10070C00F8B500BFF8BC08BC9E467047F8B500BFF2
:08071C00F8BC08BC9E467047C2
:04072400D1010008F7
:04072800AD01000817
:040000050800067178
:00000001FF
