:020000040800F2
:1000000000000320E1050008310600083106000861
:100010003106000831060008310600080000000023
:100020000000000000000000000000003106000891
:100030003106000800000000310600083106000803
:1000400031060008310600083106000831060008B4
:1000500031060008310600083106000831060008A4
:100060003106000831060008310600083106000894
:100070003106000831060008310600083106000884
:100080003106000831060008310600083106000874
:100090003106000831060008310600083106000864
:1000A0003106000831060008310600083106000854
:1000B00031060008990500083106000831060008DD
:1000C0003106000831060008310600083106000834
:1000D0003106000831060008310600083106000824
:1000E000B90400083106000831060008310600088E
:1000F0003106000831060008310600083106000804
:1001000031060008310600083106000831060008F3
:1001100031060008310600083106000831060008E3
:1001200031060008310600083106000831060008D3
:1001300031060008310600083106000831060008C3
:1001400031060008310600083106000831060008B3
:1001500031060008310600083106000831060008A3
:100160003106000831060008310600083106000893
:1001700031060008310600083106000800000000C2
:100180003106000831060008310600083106000873
:100190003106000831060008310600083106000863
:0C01A00031060008310600083106000896
:1001AC0010B5054C237833B9044B13B10448AFF3A5
:1001BC0000800123237010BD00000020000000000F
:1001CC007C06000808B5034B1BB103490348AFF389
:1001DC00008008BD00000000040000207C06000820
:1001EC00034AD2F8883043F47003C2F88830704761
:1001FC0000ED00E008B500F027F800F0A1F800F0E1
:10020C00D3F800F013F9FEE700B500F00700C0F1D9
:10021C00070CBCF1040F28BF4FF0040C031D062B78
:10022C000FD9C31E4FF0FF3E0EFA0CF021EA00016D
:10023C0099400EFA03FE22EA0E0241EA02005DF832
:10024C0004FB0023EEE700003B4A136823F0F8039D
:10025C0043F08003136000239360374B9B6813F0CB
:10026C000C0FFAD1344A136823F080731360324BAD
:10027C001B6813F0007FFAD12F4A136823F4102364
:10028C0013602D4B1B6813F4003FFAD12A4B1A68EC
:10029C0022F480221A601A6842F480321A60264BCB
:1002AC001B6813F4003FFAD0234B1A6842F4002267
:1002BC001A601A6842F480221A601A6822F001024D
:1002CC001A6000225A605A6842F480025A605A68D6
:1002DC0042F004025A605A6842F4B4425A605A68B6
:1002EC0042F480325A605A6842F070625A609A68DE
:1002FC0042F002029A609A689A609A6842F4A0529C
:10030C009A609A6842F400429A609A6822F04042DD
:10031C009A609A6842F040529A6008490A6842F022
:10032C0005020A601A6842F080721A60024B1B6860
:10033C0013F0007FFAD0704700380240003C0240B6
:10034C0008B5154A536C43F480435364A2F58032CC
:10035C00536923F0F00343F0200353610F4B1A68E9
:10036C0042F400521A609A6842F400529A60DA68B9
:10037C0042F40052DA600A4BD86800221146C0F3EE
:10038C000220FFF741FF0001C0B2064B83F828039F
:10039C004FF480725A6008BD00380240003C0140A6
:1003AC0000ED00E000E100E01D4B5A6C42F0010250
:1003BC005A641A6B42F010021A631A4A136823F03B
:1003CC00405343F000531360536A23F0706343F0BF
:1003DC0080735362144B1A6822F001021A60B32224
:1003EC009A6240F2E732DA624FF47A721A64DA698E
:1003FC0042F40062DA61DA6922F4E042DA61DA6925
:10040C0042F4C042DA611A6A42F480521A625A6C9F
:10041C0042F400425A641A6842F001021A607047B2
:10042C0000380240001002400000014010B51B4A89
:10043C00136C43F002031364194C236823F001037B
:10044C002360A36A6FF30F0343F40C5343F02703A9
:10045C00A362E36A40F2F313E362236843F0800380
:10046C002360636943F001036361E36843F00103B4
:10047C00E3600C4BD86800220121C0F30220FFF787
:10048C00C3FE0001C0B2084B83F81D034FF00052AD
:10049C001A60236843F00103236010BD003802404A
:1004AC000004004000ED00E000E100E02D4B5B6932
:1004BC0013F4005F54D02C4B1A682C4B1B68D31AC6
:1004CC00322B12D92A4B1B6913F4005F06D0294B2F
:1004DC001B7843B9274B0121197004E0254B1B787D
:1004EC00DBB2012B07D0214B1A601E4A536943F42F
:1004FC000053536170471F4B002119701E4B1B6832
:10050C00B3F5FA6F10D31D48017801311C4B83FBF6
:10051C0001C303EB43034FEA430CA1EB0C03037041
:10052C00154B00211960DEE700B5144B93F800C0A1
:10053C00144810F81C100131134B83FB01E303EB3F
:10054C004303CB1A00F81C300B4B00211960074BEE
:10055C001A60044A536943F4005353615DF804FB79
:10056C00704700BF003C01402800002030000020F4
:10057C000008024038000020340000202C0000202D
:10058C00ABAAAA2A1C000020565555550D4B1B69C9
:10059C0013F0010F15D00C4B1A6801321A600B4B7B
:1005AC00A3FB02131B0903EB830399008A4203D1BB
:1005BC00074A137801331370024A136923F00103BD
:1005CC00136170470004004028000020CDCCCCCC37
:1005DC002C000020DFF834D00D480E490E4A0023C1
:1005EC0002E0D458C4500433C4188C42F9D30B4ADB
:1005FC000B4C002301E013600432A242FBD3FFF743
:10060C00EFFD00F011F8FFF7F5FD70470000032037
:10061C0000000020000000209C06000800000020C4
:10062C003C000020FEE7000070B50D4D0D4C641B26
:10063C00A4100026A64209D10B4D0C4C00F018F862
:10064C00641BA4100026A64205D170BD55F8043BCE
:10065C0098470136EEE755F8043B98470136F2E728
:10066C0094060008940600089406000898060008F2
:10067C00F8B500BFF8BC08BC9E467047F8B500BF83
:08068C00F8BC08BC9E46704753
:04069400D101000888
:04069800AD010008A8
:04000005080005E109
:00000001FF
