:020000040800F2
:1000000000000320ED03000839040008390400084B
:100010003904000839040008390400080000000011
:10002000000000000000000000000000390400088B
:1000300039040008000000003904000839040008F1
:10004000390400083904000839040008390400089C
:10005000390400083904000839040008390400088C
:10006000390400083904000839040008390400087C
:10007000390400083904000839040008390400086C
:10008000390400083904000839040008390400085C
:10009000390400083904000839040008390400084C
:1000A000390400083904000839040008390400083C
:1000B000390400083904000839040008390400082C
:1000C000390400083904000839040008390400081C
:1000D000390400083904000839040008390400080C
:1000E00039040008390400083904000839040008FC
:1000F00039040008390400083904000839040008EC
:1001000039040008390400083904000839040008DB
:1001100039040008390400083904000839040008CB
:1001200039040008390400083904000839040008BB
:1001300039040008390400083904000839040008AB
:10014000390400083904000839040008390400089B
:10015000390400083904000839040008390400088B
:10016000390400083904000839040008390400087B
:1001700039040008390400083904000800000000B0
:10018000390400083904000839040008390400085B
:10019000390400083904000839040008390400084B
:0C01A00039040008390400083904000884
:1001AC0010B5054C237833B9044B13B10448AFF3A5
:1001BC0000800123237010BD00000020000000000F
:1001CC008404000808B5034B1BB103490348AFF383
:1001DC00008008BD0000000004000020840400081A
:1001EC0000B583B000F01AF800F038F800F050F8C1
:1001FC00054B0093054B064A0649074800F068F882
:10020C00002003B05DF804FB1C0000201D00002042
:10021C001E0000201F000020200000200D4AD2F8F4
:10022C00303843F00803C2F830380B4BD3F8002CAD
:10023C0042F00102C3F8002CD3F8082C42F0010262
:10024C00C3F8082CD3F8182C42F48032C3F8182CBD
:10025C00704700BF00300240000002400A4AD2F84A
:10026C00303843F01003C2F83038084B1A6842F4A7
:10027C0080421A609A6842F480429A609A6942F409
:10028C0000029A61704700BF00300240001002402B
:10029C000D4A136B43F0060313630C4B1A6842F0C0
:1002AC0080521A605A6822F480425A609A6842F06E
:1002BC0080529A60DA6822F08052DA609A6942F0D1
:1002CC0080429A61704700BF00380240000402402F
:1002DC0010B596469C46029C4DE0002303700B70B3
:1002EC0055E00378002B5FD101238EF80030374A9C
:1002FC00936943F00103936156E00378002B56D1C8
:10030C0001238CF80030324A936943F080039361E7
:10031C004DE00378002B4DD1012323702D4A9369B6
:10032C0043F48043936145E00378012B45D10023CE
:10033C008EF80030254A936943F4803393613CE096
:10034C000378012B3CD100238CF80030204A9369B0
:10035C0043F40003936133E00378012B33D1002382
:10036C0023701C4A936943F0804393612BE0013363
:10037C00194A9342FBDD194B1B6913F0010F06D090
:10038C000378002BA9D10123037000230B70134BAE
:10039C001B6913F4005F04D00B78022B01D80133D6
:1003AC000B700B78012B9CD00B78022BA5D00B7803
:1003BC00032BAED00B78012BB6D00B78022BBFD011
:1003CC000B78032BC8D00023D2E700BF000C0240EF
:1003DC0000100240000402407F1A06000008024090
:1003EC00DFF830D00C480D490D4A002302E0D458F8
:1003FC00C4500433C4188C42F9D30A4A0A4C002363
:10040C0001E013600432A242FBD300F011F8FFF7B5
:10041C00E7FE7047000003200000002000000020D1
:10042C00A40400080000002024000020FEE70000C7
:10043C0070B50D4D0D4C641BA4100026A64209D1BD
:10044C000B4D0C4C00F018F8641BA4100026A642AF
:10045C0005D170BD55F8043B98470136EEE755F8C9
:10046C00043B98470136F2E79C0400089C04000802
:10047C009C040008A0040008F8B500BFF8BC08BC38
:10048C009E467047F8B500BFF8BC08BC9E46704746
:04049C00D101000882
:0404A000AD010008A2
:04000005080003EDFF
:00000001FF
