:020000040800F2
:1000000000000320190500086505000865050008C3
:10001000650500086505000865050008000000008A
:10002000000000000000000000000000650500085E
:10003000650500080000000065050008650500086A
:1000400065050008650500086505000865050008E8
:1000500065050008650500086505000865050008D8
:1000600065050008650500086505000865050008C8
:1000700065050008650500086505000865050008B8
:1000800065050008650500086505000865050008A8
:100090006505000865050008650500086505000898
:1000A0006505000865050008650500086505000888
:1000B0006505000865050008650500086505000878
:1000C0006505000865050008650500086505000868
:1000D0006505000865050008650500086505000858
:1000E0006505000865050008650500086505000848
:1000F0006505000865050008650500086505000838
:100100006505000865050008650500086505000827
:100110006505000865050008650500086505000817
:100120006505000865050008650500086505000807
:1001300065050008650500086505000865050008F7
:1001400065050008650500086505000865050008E7
:1001500065050008650500086505000865050008D7
:1001600065050008650500086505000865050008C7
:100170006505000865050008650500080000000029
:1001800065050008650500086505000865050008A7
:100190006505000865050008650500086505000897
:0C01A000650500086505000865050008FD
:1001AC0010B5054C237833B9044B13B10448AFF3A5
:1001BC0000800123237010BD00000020000000000F
:1001CC00B005000808B5034B1BB103490348AFF356
:1001DC00008008BD0000000004000020B0050008ED
:1001EC0000B585B000F022F800F040F800F058F8A7
:1001FC00074B0293074B0193074B0093074B084A9D
:10020C000849094800F06CF8002005B05DF804FBC3
:10021C001C0000201D0000201E0000201F000020DC
:10022C002000002021000020220000200D4AD2F8DE
:10023C00303843F00803C2F830380B4BD3F8002C9D
:10024C0042F00102C3F8002CD3F8082C42F0010252
:10025C00C3F8082CD3F8182C42F48032C3F8182CAD
:10026C00704700BF00300240000002400A4AD2F83A
:10027C00303843F01003C2F83038084B1A6842F497
:10028C0080421A609A6842F480429A609A6942F4F9
:10029C0000029A61704700BF00300240001002401B
:1002AC000D4A136B43F0060313630C4B1A6842F0B0
:1002BC0080521A605A6822F480425A609A6842F05E
:1002CC0080529A60DA6822F08052DA609A6942F0C1
:1002DC0080429A61704700BF00380240000402401F
:1002EC00F0B596469C46059C069E079D58E0027804
:1002FC000132A3F1553303F1004383FB027303EB8B
:10030C004303A2EB4303037000230B7001222A70FA
:10031C0000E00133774A9342FBDD49E0764B1B69E1
:10032C0013F0010F44D12B78002B41D000232B70FC
:10033C003EE001336F4A9342FBDD08E06E4B1B69D4
:10034C0013F4005F03D133780BB1002333700B78B7
:10035C00012B3ED00B78022B48D00B78032B52D0BC
:10036C000B78012B5BD00B78022B65D00B78032B11
:10037C006FD09EF8003013B10378012B75D99CF81F
:10038C0000302BB10378023BDBB2012B40F28480AE
:10039C0023782BB10378043BDBB2012B40F2938022
:1003AC00554B1B6913F0010FB8D02B78002B9ED046
:1003BC00514B1B6913F4005FC0D00B78022BBDD8D6
:1003CC003278002AC3D101330B7001233370002320
:1003DC00B0E7037813F0010FBCD1484A936943F09E
:1003EC000103936101238EF80030B3E7037813F017
:1003FC00010FB2D1424A936943F080039361012308
:10040C008CF80030A9E7037813F0010FA8D13D4A0E
:10041C00936943F48043936101232370A0E703782D
:10042C0013F0010F9FD0354A936943F480339361E5
:10043C0000238EF8003096E7037813F0010F95D067
:10044C002F4A936943F40003936100238CF8003026
:10045C008CE7037813F0010F8BD02A4A936943F091
:10046C00804393610023237083E7244A936943F408
:10047C0080339361002300E00133234A9342FBDD78
:10048C001E4A936943F001039361002300E001339A
:10049C001D4A9342FBDD72E7194A936943F400034A
:1004AC009361002300E00133174A9342FBDD144AA9
:1004BC00936943F080039361002300E00133124AF7
:1004CC009342FBDD64E70F4A936943F080439361E9
:1004DC00002300E001330C4A9342FBDD094A936987
:1004EC0043F480439361002300E00133064A9342B6
:1004FC00FBDD55E77F1A060000080240000C0240A5
:10050C0000100240000402409F860100DFF830D04A
:10051C000C480D490D4A002302E0D458C450043352
:10052C00C4188C42F9D30A4A0A4C002301E0136028
:10053C000432A242FBD300F011F8FFF751FE7047D2
:10054C00000003200000002000000020D00500085F
:10055C000000002024000020FEE7000070B50D4DC7
:10056C000D4C641BA4100026A64209D10B4D0C4C5B
:10057C0000F018F8641BA4100026A64205D170BD2B
:10058C0055F8043B98470136EEE755F8043B98477D
:10059C000136F2E7C8050008C8050008C8050008C0
:1005AC00CC050008F8B500BFF8BC08BC9E467047E7
:0C05BC00F8B500BFF8BC08BC9E467047B4
:0405C800D101000855
:0405CC00AD01000875
:0400000508000519D1
:00000001FF
