:020000040800F2
:1000000000000320AD030008F9030008F90300080D
:10001000F9030008F9030008F903000800000000D4
:10002000000000000000000000000000F9030008CC
:10003000F903000800000000F9030008F9030008B4
:10004000F9030008F9030008F9030008F9030008A0
:10005000F9030008F9030008F9030008F903000890
:10006000F9030008F9030008F9030008F903000880
:10007000F9030008F9030008F9030008F903000870
:10008000F9030008F9030008F9030008F903000860
:10009000F9030008F9030008F9030008F903000850
:1000A000F9030008F9030008F9030008F903000840
:1000B000F9030008F9030008F9030008F903000830
:1000C000F9030008F9030008F9030008F903000820
:1000D000F9030008F9030008F9030008F903000810
:1000E000F9030008F9030008F9030008F903000800
:1000F000F9030008F9030008F9030008F9030008F0
:10010000F9030008F9030008F9030008F9030008DF
:10011000F9030008F9030008F9030008F9030008CF
:10012000F9030008F9030008F9030008F9030008BF
:10013000F9030008F9030008F9030008F9030008AF
:10014000F9030008F9030008F9030008F90300089F
:10015000F9030008F9030008F9030008F90300088F
:10016000F9030008F9030008F9030008F90300087F
:10017000F9030008F9030008F90300080000000073
:10018000F9030008F9030008F9030008F90300085F
:10019000F9030008F9030008F9030008F90300084F
:0C01A000F9030008F9030008F903000847
:1001AC0010B5054C237833B9044B13B10448AFF3A5
:1001BC0000800123237010BD00000020000000000F
:1001CC004404000808B5034B1BB103490348AFF3C3
:1001DC00008008BD0000000004000020440400085A
:1001EC0008B500F00FF800F02DF800F045F80349C1
:1001FC00034800F061F8002008BD00BF1C0000207F
:10020C001D0000200D4A136B43F0060313630C4BC7
:10021C001A6842F080521A605A6822F480425A607E
:10022C009A6842F080529A60DA6822F08052DA6062
:10023C009A6942F080429A61704700BF00380240D0
:10024C00000402400A4AD2F8303843F01003C2F8D6
:10025C003038084B1A6842F480421A609A6842F4AB
:10026C0080429A609A6942F400029A61704700BF1A
:10027C0000300240001002400D4AD2F8303843F0F2
:10028C000803C2F830380B4BD3F8002C42F00102B3
:10029C00C3F8002CD3F8082C42F00102C3F8082C48
:1002AC00D3F8182C42F48032C3F8182C704700BFD6
:1002BC0000300240000002403DE0002303700B7050
:1002CC0045E00378002B4FD1304A936943F001038A
:1002DC00936149E00378002B49D12D4A936943F08F
:1002EC008003936143E00378002B43D1294A93693F
:1002FC0043F4804393613DE00378012B3DD1234AC5
:10030C00936943F48033936137E00378012B37D141
:10031C001F4A936943F40003936131E00378012B86
:10032C0031D11C4A936943F0804393612BE0013334
:10033C00194A9342FBDD194B1B6913F0010F06D0D0
:10034C000378002BB9D10123037000230B70134BDE
:10035C001B6913F4005F04D00B78022B01D8013316
:10036C000B700B78012BACD00B78022BB2D00B7826
:10037C00032BB8D00B78012BBED00B78022BC4D03A
:10038C000B78032BCAD00023D2E700BF000C02402D
:10039C0000100240000402407F1A060000080240D0
:1003AC00DFF830D00C480D490D4A002302E0D45838
:1003BC00C4500433C4188C42F9D30A4A0A4C0023A3
:1003CC0001E013600432A242FBD300F011F8FFF7F6
:1003DC0007FF7047000003200000002000000020F1
:1003EC00640400080000002020000020FEE700004C
:1003FC0070B50D4D0D4C641BA4100026A64209D1FE
:10040C000B4D0C4C00F018F8641BA4100026A642EF
:10041C0005D170BD55F8043B98470136EEE755F809
:10042C00043B98470136F2E75C0400085C040008C2
:10043C005C04000860040008F8B500BFF8BC08BCF8
:10044C009E467047F8B500BFF8BC08BC9E46704786
:04045C00D1010008C2
:04046000AD010008E2
:04000005080003AD3F
:00000001FF
