:020000040800F2
:100000000000032045040008910400089104000842
:100010009104000891040008910400080000000009
:100020000000000000000000000000009104000833
:1000300091040008000000009104000891040008E9
:10004000910400089104000891040008910400083C
:10005000910400089104000891040008910400082C
:10006000910400089104000891040008910400081C
:10007000910400089104000891040008910400080C
:1000800091040008910400089104000891040008FC
:1000900091040008910400089104000891040008EC
:1000A00091040008910400089104000891040008DC
:1000B00091040008910400089104000891040008CC
:1000C00091040008910400089104000891040008BC
:1000D00091040008910400089104000891040008AC
:1000E000910400089104000891040008910400089C
:1000F000910400089104000891040008910400088C
:10010000910400089104000891040008910400087B
:10011000910400089104000891040008910400086B
:10012000910400089104000891040008910400085B
:10013000910400089104000891040008910400084B
:10014000910400089104000891040008910400083B
:10015000910400089104000891040008910400082B
:10016000910400089104000891040008910400081B
:1001700091040008910400089104000800000000A8
:1001800091040008910400089104000891040008FB
:1001900091040008910400089104000891040008EB
:0C01A0009104000891040008910400087C
:1001AC0010B5054C237833B9044B13B10448AFF3A5
:1001BC0000800123237010BD00000020000000000F
:1001CC00DC04000808B5034B1BB103490348AFF32B
:1001DC00008008BD0000000004000020DC040008C2
:1001EC0000B585B000F022F800F040F800F058F8A7
:1001FC00074B0293074B0193074B0093074B084A9D
:10020C000849094800F06CF8002005B05DF804FBC3
:10021C001C0000201D0000201E0000201F000020DC
:10022C002000002021000020220000200D4AD2F8DE
:10023C00303843F00803C2F830380B4BD3F8002C9D
:10024C0042F00102C3F8002CD3F8082C42F0010252
:10025C00C3F8082CD3F8182C42F48032C3F8182CAD
:10026C00704700BF00300240000002400A4AD2F83A
:10027C00303843F01003C2F83038084B1A6842F497
:10028C0080421A609A6842F480429A609A6942F4F9
:10029C0000029A61704700BF00300240001002401B
:1002AC000D4A136B43F0060313630C4B1A6842F0B0
:1002BC0080521A605A6822F480425A609A6842F05E
:1002CC0080529A60DA6822F08052DA609A6942F0C1
:1002DC0080429A61704700BF00380240000402401F
:1002EC00F0B515461C46059EDDF818E0079F37E073
:1002FC000378013303F0010348BF5B420370002312
:10030C000B7001223A7000E00133464A9342FBDD48
:10031C002EE0454B1B6913F0010F29D13B783BB301
:10032C0000233B7024E0404B1B6913F4005F05D1A4
:10033C009EF8003013B100238EF800300B78012B9F
:10034C002DD00B78022B35D00B78032B3DD00B78AE
:10035C00012B45D00B78022B4DD00B78032B55D0AD
:10036C00314B1B6913F0010FD3D03B78002BBFD05E
:10037C002D4B1B6913F4005FD5D00B78022BD2D810
:10038C009EF80020002AD9D101330B7001238EF87E
:10039C0000300023234A9342D0DC0133FAE7037880
:1003AC00002BCED101232B70204A936943F001031B
:1003BC009361C6E70378002BC6D1012323701C4A36
:1003CC00936943F080039361BEE70378002BBED1A1
:1003DC0001233370174A936943F480439361B6E762
:1003EC000378012BB6D100232B70104A936943F488
:1003FC0080339361AEE70378012BAED100232370D9
:10040C000B4A936943F400039361A6E70378012B2D
:10041C00A6D100233370074A936943F0804393615C
:10042C009EE700BF7F1A060000080240000C024045
:10043C000010024000040240DFF830D00C480D4997
:10044C000D4A002302E0D458C4500433C4188C4223
:10045C00F9D30A4A0A4C002301E013600432A24289
:10046C00FBD300F011F8FFF7BBFE70470000032030
:10047C000000002000000020FC0400080000002008
:10048C0024000020FEE7000070B50D4D0D4C641BE0
:10049C00A4100026A64209D10B4D0C4C00F018F804
:1004AC00641BA4100026A64205D170BD55F8043B70
:1004BC0098470136EEE755F8043B98470136F2E7CA
:1004CC00F4040008F4040008F4040008F80400081C
:1004DC00F8B500BFF8BC08BC9E467047F8B500BF25
:0804EC00F8BC08BC9E467047F5
:0404F400D10100082A
:0404F800AD0100084A
:0400000508000445A6
:00000001FF
